:020000020000FC
:020000000AC034
:10000C0001C0F4C001E0F02E18950FE502E00EBF20
:10001C0006E0B02E00E0C02ED02ED99868E368BB65
:10002C00D89AD898D9986EE0D89AD898ABD0D99855
:10003C0066E068BBD89AD89803E003BF02E008BF1B
:10004C0002E009BF0FEF0AE005BF00EC0BBF78948C
:10005C0000E0E02E00E0F02E21E031E040E050E046
:10006C00239533953A3011F4439530E04A3019F426
:10007C0021E031E040E0FF2099F3FF2089F3D9988B
:10008C0060EC68BBD89AD898F2E0E2E8A1D00FE017
:10009C0004BB05BB93D003B30F3021F40E2D0030FD
:1000AC0071F4F8CF10EF14BB15BB88D013B3003F1D
:1000BC0071F301231E2D103051F7E02EE8CF10E024
:1000CC00E12E0132E9F00138E1F004FDE0CF152F0B
:1000DC001A50E8F65DD00134C1F00838E9F0083464
:1000EC0009F1083229F1043849F1043469F1043278
:1000FC0089F10238A9F10234C9F10232E9F1C7CF12
:10010C00C6CF50E05DD064D0BACF552301F2512F49
:10011C0010E3712E41D0BBCF1F5F512F11E3712E15
:10012C003BD0B5CF1E5F512F12E3712E35D0AFCF20
:10013C001D5F512F13E3712E2FD0A9CF1C5F512FB0
:10014C0014E3712E29D0A3CF1B5F512F15E3712E11
:10015C0023D09DCF1A5F512F16E3712E1DD097CF50
:10016C00195F512F17E3712E17D091CF185F512FB4
:10017C0018E3712E11D08BCF175F512F19E3712E0D
:10018C000BD085CFD99861E068BBD89AD8980895E0
:10019C001AE0519F102D0895712E152F1A5030F41E
:1001AC00D99866EC68BBD89AD89806C0D99867ECF1
:1001BC0068BBD89AD89800C012D008950000089552
:1001CC00D99860EC68BBD89AD898F2E0EAE8089520
:1001DC00C895002049F0702C02D03196F9CFD99AED
:1001EC0078BAD89AD898089578940895902EA12E1C
:1001FC0008E1D394D01679F500E0C01619F4B016C6
:10020C0019F41BC0CA9404C009E0C02EBA9400C0F3
:10021C000B2D1C2D012B003081F000E0D02ED99835
:10022C0060E868BBD89AD8980B2D005D702ED7DF8C
:10023C000C2D005D702ED3DF0EC006E0B02E00E05A
:10024C00C02ED02ED99860E868BBD89AD898F2E026
:10025C00E8E6BEDF00C0092D1A2D189554494D450E
:10026C0053205550210048494748455221004C4FD6
:10027C0057455221000047554553533A0000202062
:08028C002020202020200000AA
:00000001FF
