:020000020000FC
:0600000017C006C012C18A
:10000E009AC1611469F46394539481E071E300E33F
:10001E00802E13D14CD15ED168D101E0F02E18950F
:10002E0018950FE502E00EBF06E0B02E00E0C02EE0
:10003E00D99868E368BBD89AD898D9986EE0D89AC0
:10004E00D898FBD0D99866E068BBD89AD898F5D0E6
:10005E00F3E0E4EA18D125D1F3E0E2EC14D103E0A9
:10006E0003BF02E008BF02E009BF0FEF0AE005BFC1
:10007E0000EC0BBF789400E0E02E00E0F02E21E0C3
:10008E0031E040E050E0239533953A3011F443953A
:10009E0030E04A3019F421E031E040E0FF2099F3DE
:1000AE00FF2089F3D99860EC68BBD89AD898F4E011
:1000BE00EAE5E9D00FE004BB05BBDBD003B30F309C
:1000CE0029F476D00E2D003071F4F7CF10EF14BB5B
:1000DE0015BBCFD013B3003F69F301231E2D103093
:1000EE0049F7E02EE7CF10E0E12E0132E9F00138BA
:1000FE00E9F004FDDFCF152F1A50E0F6A4D001343D
:10010E00C9F00838F1F0083411F1083231F1043831
:10011E0051F1043471F1043291F10238B1F102342B
:10012E00D1F10232F1F1C6CF46D0C4CF50E0A3D008
:10013E00AAD0B8CF5523D9F1512F10E3712E87D005
:10014E00B9CF1F5F512F11E3712E81D0B3CF1E5F38
:10015E00512F12E3712E7BD0ADCF1D5F512F13E3C4
:10016E00712E75D0A7CF1C5F512F14E3712E6FD057
:10017E00A1CF1B5F512F15E3712E69D09BCF1A5F54
:10018E00512F16E3712E63D095CF195F512F17E3C0
:10019E00712E5DD08FCF185F512F18E3712E57D06F
:1001AE0089CF175F512F19E3712E51D083CF82CF94
:1001BE009130A1F00895251789F001F452170CF033
:1001CE001CF4B0ECBBBB05C0521741F0BCE0BBBB8E
:1001DE0000C050E050D057D065CF0895B0E3BBBB00
:1001EE007933D1F0FA9480E0582E50E044D04BD0C1
:1001FE0058D002D048D047CF913051F0839461D07F
:10020E00783319F087D03FD0089580D03CD0089530
:10021E007833D9F384D0089510D0FECFB0E0BBBBB5
:10022E00511451F453947FD026D02DD03AD0A1E062
:10023E0081E090E0FA2E18951895D99861E068BB88
:10024E00D89AD89808951AE0519F102D0895712EBE
:10025E00152F1A5030F4D99866EC68BBD89AD898F6
:10026E0006C0D99867EC68BBD89AD89800C014D04D
:10027E00089500000895D99860EC68BBD89AD89874
:10028E00F4E0E2E60895C895002021F0702C04D029
:10029E003196F9CF78940895D99A78BAD89AD89891
:1002AE000895D99860EC68BBD89AD8980895F4E070
:1002BE00E8E2E9DF60E3762EEFDF772EEDDF22D086
:1002CE000895D99860E968BBD89AD898682D762E8B
:1002DE00E3DF0895F4E0E0E3D6DF60E3762EDCDFC3
:1002EE0060E3762ED9DF0ED00895F4E0E8E3CBDF9D
:1002FE0008957F5F772ED99868E868BBD89AD8980A
:10030E00CBDF0895F4E0EEE3BEDF0895F4E0ECE019
:10031E00BADF0895C6DFF3E0E6EFB5DF0895F3E048
:10032E00ECEDB1DF089500E0D02E05E0B02E0AE02E
:10033E00C02EDFDF0895803069F1902EA12E08E1E6
:10034E00D394D01621F500E0C01619F4B01619F4A6
:10035E0016C0CA9404C009E0C02EBA9400C000E0D2
:10036E00D02ED99868E968BBD89AD8980B2D005D25
:10037E00702E92DF0C2D005D702E8EDF08C000E017
:10038E00D02E05E0B02E0AE0C02E91E000C0092D5F
:10039E001A2D1895189557656C636F6D6520746FDF
:1003AE0020477565737320746865204E756D6265A0
:1003BE007221000020202042793A416E647265203D
:1003CE0043616879612026204E61666973002020A2
:1003DE0020204E6F6F622E2E2E6E657874206C6507
:1003EE0076656C2E2E2E00002020202020204E69B7
:1003FE0063652E2E2E2072656164793F00002020E9
:10040E00204F48204E4F4553212046696E616C2087
:10041E004C6576656C2021212100204C6576656C3B
:10042E003A00506F696E743A000054696D653A0077
:10043E007C0054494D4553205550210048494748AA
:10044E00455221004C4F5745522100004755455308
:10045E00533A000020202020202020202020202081
:10046E00202020202020202020202020202020207E
:02047E0020005C
:00000001FF
