:020000020000FC
:0600000017C006C02BC171
:10000E00C5C1611469F46394539481E071E300E314
:10001E00802E2CD165D177D181D101E0F02E1895AB
:10002E0018950FE502E00EBF06E0B02E00E0C02EE0
:10003E00D99868E368BBD89AD898D9986EE0D89AC0
:10004E00D89814D1D99866E068BBD89AD8980ED1B2
:10005E00F4E0EAE231D13ED1F4E0E8E42DD103E060
:10006E0003BF02E008BF02E009BF0FEF0AE005BFC1
:10007E0000EC0BBF789400E0E02E00E0F02E21E0C3
:10008E0031E040E050E0239533953A3011F443953A
:10009E0030E04A3019F421E031E040E0FF2099F3DE
:1000AE00FF2089F3D99860EC68BBD89AD898F5E010
:1000BE00E4E002D10FE004BB05BBF4D003B30F3074
:1000CE0029F476D00E2D003071F4F7CF10EF14BB5B
:1000DE0015BBE8D013B3003F69F301231E2D10307A
:1000EE0049F7E02EE7CF10E0E12E0132E9F00138BA
:1000FE00E9F004FDDFCF152F1A50E0F6BDD0013424
:10010E00C9F00838F1F0083411F1083231F1043831
:10011E0051F1043471F1043291F10238B1F102342B
:10012E00D1F10232F1F1C6CF46D0C4CF50E0BCD0EF
:10013E00C3D0B8CF5523D9F1512F10E3712EA0D0D3
:10014E00B9CF1F5F512F11E3712E9AD0B3CF1E5F1F
:10015E00512F12E3712E94D0ADCF1D5F512F13E3AB
:10016E00712E8ED0A7CF1C5F512F14E3712E88D025
:10017E00A1CF1B5F512F15E3712E82D09BCF1A5F3B
:10018E00512F16E3712E7CD095CF195F512F17E3A7
:10019E00712E76D08FCF185F512F18E3712E70D03D
:1001AE0089CF175F512F19E3712E6AD083CF82CF7B
:1001BE00913009F108952517F1F001F452170CF062
:1001CE003CF472D0D2D078D0B0ECBBBB0FD109C00A
:1001DE00521789F069D0C4D06FD0BCE0BBBB06D13A
:1001EE0000C004D103D102D101D100D150E05CD0C6
:1001FE0063D058CF0895B0E3BBBB7933E1F0FA94E6
:10020E0080E0582E50E050D057D064D002D054D059
:10021E003ACF913061F083946DD0783319F09BD042
:10022E004BD0089541D056D08AD046D00895783319
:10023E00C9F3A0D008951AD086D0782C46D000E30A
:10024E00702E43D047D083D080E000C0FFCFB0E007
:10025E00BBBB511451F4539491D026D02DD03AD02B
:10026E00A1E081E090E0FA2E18951895D99861E0FA
:10027E0068BBD89AD89808951AE0519F102D08950A
:10028E00712E152F1A5030F4D99866EC68BBD89A97
:10029E00D89806C0D99867EC68BBD89AD89800C091
:1002AE0014D0089500000895D99860EC68BBD89AD0
:1002BE00D898F5E0ECE00895C895002021F0702C58
:1002CE0004D03196F9CF78940895D99A78BAD89AFD
:1002DE00D8980895D99860EC68BBD89AD8980895A4
:1002EE00F4E0EEEAE9DF60E3762EEFDF772EEDDF66
:1002FE0022D00895D99860E968BBD89AD898682D0D
:10030E00762EE3DF0895F4E0E6EBD6DF60E3762E9B
:10031E00DCDF60E3762ED9DF0ED00895F4E0EEEB4D
:10032E00CBDF08957F5F772ED99868E868BBD89A9F
:10033E00D898CBDF0895F4E0E4ECBEDF0895F4E046
:10034E00E2E9BADF0895F4E0EAE0B6DF0895F4E0FA
:10035E00E4E1B2DF0895BEDFF4E0ECE7ADDF08952F
:10036E00B9DFF4E0E0EDA8DF0895B4DFF4E0EAEEE3
:10037E00A3DF0895F4E0E2E69FDF089500E0D02EBB
:10038E0005E0B02E0AE0C02ECDDF0895803069F171
:10039E00902EA12E08E1D394D01621F500E0C016C0
:1003AE0019F4B01619F416C0CA9404C009E0C02E90
:1003BE00BA9400C000E0D02ED99868E968BBD89AEC
:1003CE00D8980B2D005D702E80DF0C2D005D702EE9
:1003DE007CDF08C000E0D02E05E0B02E0AE0C02E73
:1003EE0091E000C0092D1A2D18951895C4E3D2EF8F
:1003FE00DA95F1F7CA95E1F700000895596F752067
:10040E00676F743A00005468616E6B20796F7520C7
:10041E00666F7220706C6179696E670057656C63E8
:10042E006F6D6520746F20477565737320746865F2
:10043E00204E756D62657221000020202042793AAF
:10044E00416E6472652043616879612026204E6199
:10045E006669730020202020436B636B2E2E2E6E58
:10046E00657874206C6576656C2E2E2E000020202B
:10047E00202020204E6963652E2E2E207265616429
:10048E00793F00002020204F48204E4F4553212019
:10049E0046696E616C204C6576656C2021212100C9
:1004AE00204C6576656C3A00506F696E743A0000A8
:1004BE0054696D653A007C0054494D4553205550A2
:1004CE0021002020596F7572206E756D6265722045
:1004DE00697320746F6F20484947480020202059C7
:1004EE006F7572206E756D62657220697320746F00
:1004FE006F204C4F570047554553533A000020206C
:10050E0020202020202020202020202020202020DD
:0E051E0020202020202020202020202000004F
:00000001FF
